{
  "_format": "hh-sol-artifact-1",
  "contractName": "ProtectedTransferV2",
  "sourceName": "contracts/transfers/ProtectedTransferV2.sol",
  "abi": [
    {
      "inputs": [
        {
          "internalType": "address",
          "name": "_feeCollector",
          "type": "address"
        },
        {
          "internalType": "uint16",
          "name": "_feeInBasisPoints",
          "type": "uint16"
        }
      ],
      "stateMutability": "nonpayable",
      "type": "constructor"
    },
    {
      "inputs": [],
      "name": "InvalidAmount",
      "type": "error"
    },
    {
      "inputs": [],
      "name": "InvalidClaimCode",
      "type": "error"
    },
    {
      "inputs": [],
      "name": "InvalidExpiryTime",
      "type": "error"
    },
    {
      "inputs": [],
      "name": "InvalidTokenAddress",
      "type": "error"
    },
    {
      "inputs": [],
      "name": "NotIntendedRecipient",
      "type": "error"
    },
    {
      "inputs": [],
      "name": "NotLinkTransfer",
      "type": "error"
    },
    {
      "inputs": [],
      "name": "NotTransferSender",
      "type": "error"
    },
    {
      "inputs": [
        {
          "internalType": "address",
          "name": "owner",
          "type": "address"
        }
      ],
      "name": "OwnableInvalidOwner",
      "type": "error"
    },
    {
      "inputs": [
        {
          "internalType": "address",
          "name": "account",
          "type": "address"
        }
      ],
      "name": "OwnableUnauthorizedAccount",
      "type": "error"
    },
    {
      "inputs": [],
      "name": "PasswordProtected",
      "type": "error"
    },
    {
      "inputs": [],
      "name": "ReentrancyGuardReentrantCall",
      "type": "error"
    },
    {
      "inputs": [
        {
          "internalType": "address",
          "name": "token",
          "type": "address"
        }
      ],
      "name": "SafeERC20FailedOperation",
      "type": "error"
    },
    {
      "inputs": [],
      "name": "TokenNotSupported",
      "type": "error"
    },
    {
      "inputs": [],
      "name": "TransferAlreadyExists",
      "type": "error"
    },
    {
      "inputs": [],
      "name": "TransferDoesNotExist",
      "type": "error"
    },
    {
      "inputs": [],
      "name": "TransferExpired",
      "type": "error"
    },
    {
      "inputs": [],
      "name": "TransferNotClaimable",
      "type": "error"
    },
    {
      "inputs": [],
      "name": "TransferNotExpired",
      "type": "error"
    },
    {
      "inputs": [],
      "name": "TransferNotRefundable",
      "type": "error"
    },
    {
      "inputs": [],
      "name": "ZeroFeeCollector",
      "type": "error"
    },
    {
      "anonymous": false,
      "inputs": [
        {
          "indexed": true,
          "internalType": "address",
          "name": "feeCollector",
          "type": "address"
        }
      ],
      "name": "FeeCollectorUpdated",
      "type": "event"
    },
    {
      "anonymous": false,
      "inputs": [
        {
          "indexed": false,
          "internalType": "uint16",
          "name": "feeInBasisPoints",
          "type": "uint16"
        }
      ],
      "name": "FeeUpdated",
      "type": "event"
    },
    {
      "anonymous": false,
      "inputs": [
        {
          "indexed": true,
          "internalType": "address",
          "name": "previousOwner",
          "type": "address"
        },
        {
          "indexed": true,
          "internalType": "address",
          "name": "newOwner",
          "type": "address"
        }
      ],
      "name": "OwnershipTransferred",
      "type": "event"
    },
    {
      "anonymous": false,
      "inputs": [
        {
          "indexed": true,
          "internalType": "address",
          "name": "tokenAddress",
          "type": "address"
        },
        {
          "indexed": false,
          "internalType": "bool",
          "name": "isSupported",
          "type": "bool"
        }
      ],
      "name": "TokenSupportUpdated",
      "type": "event"
    },
    {
      "anonymous": false,
      "inputs": [
        {
          "indexed": true,
          "internalType": "bytes32",
          "name": "transferId",
          "type": "bytes32"
        },
        {
          "indexed": true,
          "internalType": "address",
          "name": "recipient",
          "type": "address"
        }
      ],
      "name": "TransferAssociatedWithRecipient",
      "type": "event"
    },
    {
      "anonymous": false,
      "inputs": [
        {
          "indexed": true,
          "internalType": "bytes32",
          "name": "transferId",
          "type": "bytes32"
        },
        {
          "indexed": true,
          "internalType": "address",
          "name": "claimer",
          "type": "address"
        },
        {
          "indexed": false,
          "internalType": "uint256",
          "name": "amount",
          "type": "uint256"
        }
      ],
      "name": "TransferClaimed",
      "type": "event"
    },
    {
      "anonymous": false,
      "inputs": [
        {
          "indexed": true,
          "internalType": "bytes32",
          "name": "transferId",
          "type": "bytes32"
        },
        {
          "indexed": true,
          "internalType": "address",
          "name": "sender",
          "type": "address"
        },
        {
          "indexed": true,
          "internalType": "address",
          "name": "recipient",
          "type": "address"
        },
        {
          "indexed": false,
          "internalType": "address",
          "name": "tokenAddress",
          "type": "address"
        },
        {
          "indexed": false,
          "internalType": "uint256",
          "name": "amount",
          "type": "uint256"
        },
        {
          "indexed": false,
          "internalType": "uint256",
          "name": "grossAmount",
          "type": "uint256"
        },
        {
          "indexed": false,
          "internalType": "uint256",
          "name": "expiry",
          "type": "uint256"
        }
      ],
      "name": "TransferCreated",
      "type": "event"
    },
    {
      "anonymous": false,
      "inputs": [
        {
          "indexed": true,
          "internalType": "bytes32",
          "name": "transferId",
          "type": "bytes32"
        },
        {
          "indexed": true,
          "internalType": "address",
          "name": "sender",
          "type": "address"
        },
        {
          "indexed": false,
          "internalType": "uint256",
          "name": "amount",
          "type": "uint256"
        }
      ],
      "name": "TransferRefunded",
      "type": "event"
    },
    {
      "inputs": [],
      "name": "DEFAULT_EXPIRY_TIME",
      "outputs": [
        {
          "internalType": "uint256",
          "name": "",
          "type": "uint256"
        }
      ],
      "stateMutability": "view",
      "type": "function"
    },
    {
      "inputs": [],
      "name": "MAX_EXPIRY_TIME",
      "outputs": [
        {
          "internalType": "uint256",
          "name": "",
          "type": "uint256"
        }
      ],
      "stateMutability": "view",
      "type": "function"
    },
    {
      "inputs": [],
      "name": "MIN_EXPIRY_TIME",
      "outputs": [
        {
          "internalType": "uint256",
          "name": "",
          "type": "uint256"
        }
      ],
      "stateMutability": "view",
      "type": "function"
    },
    {
      "inputs": [
        {
          "internalType": "bytes32",
          "name": "transferId",
          "type": "bytes32"
        },
        {
          "internalType": "string",
          "name": "claimCode",
          "type": "string"
        }
      ],
      "name": "claimTransfer",
      "outputs": [],
      "stateMutability": "nonpayable",
      "type": "function"
    },
    {
      "inputs": [
        {
          "internalType": "address",
          "name": "recipient",
          "type": "address"
        },
        {
          "internalType": "address",
          "name": "tokenAddress",
          "type": "address"
        },
        {
          "internalType": "uint256",
          "name": "amount",
          "type": "uint256"
        },
        {
          "internalType": "uint256",
          "name": "expiry",
          "type": "uint256"
        },
        {
          "internalType": "bool",
          "name": "hasPassword",
          "type": "bool"
        },
        {
          "internalType": "bytes32",
          "name": "claimCodeHash",
          "type": "bytes32"
        }
      ],
      "name": "createDirectTransfer",
      "outputs": [
        {
          "internalType": "bytes32",
          "name": "",
          "type": "bytes32"
        }
      ],
      "stateMutability": "nonpayable",
      "type": "function"
    },
    {
      "inputs": [
        {
          "internalType": "address",
          "name": "tokenAddress",
          "type": "address"
        },
        {
          "internalType": "uint256",
          "name": "amount",
          "type": "uint256"
        },
        {
          "internalType": "uint256",
          "name": "expiry",
          "type": "uint256"
        },
        {
          "internalType": "bool",
          "name": "hasPassword",
          "type": "bool"
        },
        {
          "internalType": "bytes32",
          "name": "claimCodeHash",
          "type": "bytes32"
        }
      ],
      "name": "createLinkTransfer",
      "outputs": [
        {
          "internalType": "bytes32",
          "name": "",
          "type": "bytes32"
        }
      ],
      "stateMutability": "nonpayable",
      "type": "function"
    },
    {
      "inputs": [],
      "name": "feeCollector",
      "outputs": [
        {
          "internalType": "address",
          "name": "",
          "type": "address"
        }
      ],
      "stateMutability": "view",
      "type": "function"
    },
    {
      "inputs": [],
      "name": "feeInBasisPoints",
      "outputs": [
        {
          "internalType": "uint16",
          "name": "",
          "type": "uint16"
        }
      ],
      "stateMutability": "view",
      "type": "function"
    },
    {
      "inputs": [
        {
          "internalType": "address",
          "name": "recipient",
          "type": "address"
        }
      ],
      "name": "getRecipientTransfers",
      "outputs": [
        {
          "internalType": "bytes32[]",
          "name": "",
          "type": "bytes32[]"
        }
      ],
      "stateMutability": "view",
      "type": "function"
    },
    {
      "inputs": [
        {
          "internalType": "bytes32",
          "name": "transferId",
          "type": "bytes32"
        }
      ],
      "name": "getTransfer",
      "outputs": [
        {
          "internalType": "address",
          "name": "sender",
          "type": "address"
        },
        {
          "internalType": "address",
          "name": "recipient",
          "type": "address"
        },
        {
          "internalType": "address",
          "name": "tokenAddress",
          "type": "address"
        },
        {
          "internalType": "uint256",
          "name": "amount",
          "type": "uint256"
        },
        {
          "internalType": "uint256",
          "name": "grossAmount",
          "type": "uint256"
        },
        {
          "internalType": "uint256",
          "name": "expiry",
          "type": "uint256"
        },
        {
          "internalType": "uint8",
          "name": "status",
          "type": "uint8"
        },
        {
          "internalType": "uint256",
          "name": "createdAt",
          "type": "uint256"
        },
        {
          "internalType": "bool",
          "name": "isLinkTransfer",
          "type": "bool"
        },
        {
          "internalType": "bool",
          "name": "hasPassword",
          "type": "bool"
        }
      ],
      "stateMutability": "view",
      "type": "function"
    },
    {
      "inputs": [
        {
          "internalType": "bytes32",
          "name": "transferId",
          "type": "bytes32"
        }
      ],
      "name": "isPasswordProtected",
      "outputs": [
        {
          "internalType": "uint8",
          "name": "",
          "type": "uint8"
        }
      ],
      "stateMutability": "view",
      "type": "function"
    },
    {
      "inputs": [
        {
          "internalType": "bytes32",
          "name": "transferId",
          "type": "bytes32"
        }
      ],
      "name": "isTransferClaimable",
      "outputs": [
        {
          "internalType": "bool",
          "name": "",
          "type": "bool"
        }
      ],
      "stateMutability": "view",
      "type": "function"
    },
    {
      "inputs": [],
      "name": "owner",
      "outputs": [
        {
          "internalType": "address",
          "name": "",
          "type": "address"
        }
      ],
      "stateMutability": "view",
      "type": "function"
    },
    {
      "inputs": [
        {
          "internalType": "bytes32",
          "name": "transferId",
          "type": "bytes32"
        }
      ],
      "name": "refundTransfer",
      "outputs": [],
      "stateMutability": "nonpayable",
      "type": "function"
    },
    {
      "inputs": [],
      "name": "renounceOwnership",
      "outputs": [],
      "stateMutability": "nonpayable",
      "type": "function"
    },
    {
      "inputs": [
        {
          "internalType": "uint16",
          "name": "newFeeInBasisPoints",
          "type": "uint16"
        }
      ],
      "name": "setFee",
      "outputs": [],
      "stateMutability": "nonpayable",
      "type": "function"
    },
    {
      "inputs": [
        {
          "internalType": "address",
          "name": "newFeeCollector",
          "type": "address"
        }
      ],
      "name": "setFeeCollector",
      "outputs": [],
      "stateMutability": "nonpayable",
      "type": "function"
    },
    {
      "inputs": [
        {
          "internalType": "address",
          "name": "tokenAddress",
          "type": "address"
        },
        {
          "internalType": "bool",
          "name": "isSupported",
          "type": "bool"
        }
      ],
      "name": "setTokenSupport",
      "outputs": [],
      "stateMutability": "nonpayable",
      "type": "function"
    },
    {
      "inputs": [
        {
          "internalType": "address",
          "name": "",
          "type": "address"
        }
      ],
      "name": "supportedTokens",
      "outputs": [
        {
          "internalType": "bool",
          "name": "",
          "type": "bool"
        }
      ],
      "stateMutability": "view",
      "type": "function"
    },
    {
      "inputs": [
        {
          "internalType": "address",
          "name": "newOwner",
          "type": "address"
        }
      ],
      "name": "transferOwnership",
      "outputs": [],
      "stateMutability": "nonpayable",
      "type": "function"
    },
    {
      "inputs": [
        {
          "internalType": "bytes32",
          "name": "",
          "type": "bytes32"
        }
      ],
      "name": "transfers",
      "outputs": [
        {
          "internalType": "address",
          "name": "sender",
          "type": "address"
        },
        {
          "internalType": "address",
          "name": "recipient",
          "type": "address"
        },
        {
          "internalType": "address",
          "name": "tokenAddress",
          "type": "address"
        },
        {
          "internalType": "uint256",
          "name": "amount",
          "type": "uint256"
        },
        {
          "internalType": "uint256",
          "name": "grossAmount",
          "type": "uint256"
        },
        {
          "internalType": "uint256",
          "name": "expiry",
          "type": "uint256"
        },
        {
          "internalType": "bytes32",
          "name": "claimCodeHash",
          "type": "bytes32"
        },
        {
          "internalType": "enum ProtectedTransferV2.TransferStatus",
          "name": "status",
          "type": "uint8"
        },
        {
          "internalType": "uint256",
          "name": "createdAt",
          "type": "uint256"
        },
        {
          "internalType": "bool",
          "name": "isLinkTransfer",
          "type": "bool"
        },
        {
          "internalType": "bool",
          "name": "hasPassword",
          "type": "bool"
        }
      ],
      "stateMutability": "view",
      "type": "function"
    }
  ],
  "bytecode": "0x60806040523480156200001157600080fd5b5060405162001a6638038062001a6683398101604081905262000034916200011a565b600160005533806200006057604051631e4fbdf760e01b81526000600482015260240160405180910390fd5b6200006b81620000c8565b506001600160a01b0382166200009457604051635fb3e86760e11b815260040160405180910390fd5b6004805461ffff909216600160a01b026001600160b01b03199092166001600160a01b03909316929092171790556200016a565b600180546001600160a01b038381166001600160a01b0319831681179093556040519116919082907f8be0079c531659141344cd1fd0a4f28419497f9722a3daafe3b4186f6b6457e090600090a35050565b600080604083850312156200012e57600080fd5b82516001600160a01b03811681146200014657600080fd5b602084015190925061ffff811681146200015f57600080fd5b809150509250929050565b6118ec806200017a6000396000f3fe608060405234801561001057600080fd5b50600436106101375760003560e01c8063715018a6116100b8578063a6175b0c1161007c578063a6175b0c14610388578063ad991c151461039b578063b45edf47146103ae578063c415b95c146103d6578063ed8d6c8f146102fe578063f2fde38b146103e957600080fd5b8063715018a61461032b5780637be7bb2e146103335780638da5cb5b1461033d5780638e00555314610362578063a42dce801461037557600080fd5b80633c64f04b116100ff5780633c64f04b1461023357806359d3deb9146102c85780636610ce91146102db57806366fce2e6146102fe57806368c4ac261461030857600080fd5b8063042334561461013c5780630c6a753f146101655780630c8a24721461017a578063260958a51461019b5780633b627cb71461020e575b600080fd5b61014f61014a36600461157d565b6103fc565b60405161015c9190611598565b60405180910390f35b6101786101733660046115ec565b610468565b005b61018d61018836600461161f565b6104f6565b60405190815260200161015c565b6101ae6101a936600461167e565b6108c8565b604080516001600160a01b039b8c168152998b1660208b015297909916968801969096526060870194909452608086019290925260a085015260ff1660c084015260e083015215156101008201529015156101208201526101400161015c565b61022161021c36600461167e565b6109ae565b60405160ff909116815260200161015c565b6102b161024136600461167e565b600260208190526000918252604090912080546001820154928201546003830154600484015460058501546006860154600787015460088801546009909801546001600160a01b03978816998816989690971696949593949293919260ff9182169291818116916101009004168b565b60405161015c9b9a999897969594939291906116ad565b61018d6102d636600461173d565b610a02565b6102ee6102e936600461167e565b610e1f565b604051901515815260200161015c565b61018d6201518081565b6102ee61031636600461157d565b60036020526000908152604090205460ff1681565b610178610e6c565b61018d62278d0081565b6001546001600160a01b03165b6040516001600160a01b03909116815260200161015c565b61017861037036600461178b565b610e80565b61017861038336600461157d565b610ede565b6101786103963660046117af565b610f57565b6101786103a936600461167e565b611124565b6004546103c390600160a01b900461ffff1681565b60405161ffff909116815260200161015c565b60045461034a906001600160a01b031681565b6101786103f736600461157d565b611273565b6001600160a01b03811660009081526005602090815260409182902080548351818402810184019094528084526060939283018282801561045c57602002820191906000526020600020905b815481526020019060010190808311610448575b50505050509050919050565b6104706112b3565b6001600160a01b03821661049757604051630f58058360e11b815260040160405180910390fd5b6001600160a01b038216600081815260036020908152604091829020805460ff191685151590811790915591519182527fbbe72b7d9dcb594ee398a4a617885aba53d833e2aad601c813ce9df99fdeb49b910160405180910390a25050565b60006105006112e0565b6001600160a01b03861661052757604051630f58058360e11b815260040160405180910390fd5b846000036105485760405163162908e360e11b815260040160405180910390fd5b6001600160a01b03861660009081526003602052604090205460ff1661058157604051633dd1b30560e01b815260040160405180910390fd5b6001600160a01b0387166105a857604051630f58058360e11b815260040160405180910390fd5b8280156105b3575081155b156105d15760405163218141ab60e21b815260040160405180910390fd5b836000036105ed576105e66201518042611841565b9350610625565b4284111580610607575061060462278d0042611841565b84115b15610625576040516398e71feb60e01b815260040160405180910390fd5b600061063533898989898861130a565b6000818152600260205260409020600801549091501561066757604051626995d560e31b815260040160405180910390fd5b6004546000908790600160a01b900461ffff16156106b4576004546127109061069b90600160a01b900461ffff168a61185a565b6106a59190611871565b91506106b18289611893565b90505b604051806101600160405280336001600160a01b031681526020018b6001600160a01b031681526020018a6001600160a01b031681526020018281526020018981526020018881526020018761070b57600061070d565b865b81526020016000815242602080830191909152600060408084018290528a1515606094850152878252600280845291819020855181546001600160a01b03199081166001600160a01b039283161783559487015160018084018054881692841692909217909155928701519382018054909516931692909217909255918301516003808401919091556080840151600484015560a0840151600584015560c0840151600684015560e08401516007840180549193909260ff199092169184908111156107db576107db611697565b0217905550610100828101516008830155610120830151600990920180546101409094015161ffff1990941692151561ff00191692909217921515029190911790556108326001600160a01b038a1633308b611397565b811561085257600454610852906001600160a01b038b8116911684611404565b61085c838b611435565b604080516001600160a01b038b81168252602082018490529181018a905260608101899052908b1690339085907fed93da789387b889dbb469e12e0518ddf6c6145468a3154ce1e479eedf2fc2d49060800160405180910390a450506001600055979650505050505050565b6000806000806000806000806000806000600260008d81526020019081526020016000209050806008015460000361091357604051634937821160e01b815260040160405180910390fd5b8054600182015460028301546003808501546004860154600587015460078801546001600160a01b0397881697968716969095169492939192909160ff9091169081111561096357610963611697565b87600801548860090160009054906101000a900460ff168960090160019054906101000a900460ff169a509a509a509a509a509a509a509a509a509a50509193959799509193959799565b6000818152600260205260408120600881015482036109e057604051634937821160e01b815260040160405180910390fd5b6009810154610100900460ff166109f85760006109fb565b60015b9392505050565b6000610a0c6112e0565b6001600160a01b038616610a3357604051630f58058360e11b815260040160405180910390fd5b84600003610a545760405163162908e360e11b815260040160405180910390fd5b6001600160a01b03861660009081526003602052604090205460ff16610a8d57604051633dd1b30560e01b815260040160405180910390fd5b828015610a98575081155b15610ab65760405163218141ab60e21b815260040160405180910390fd5b83600003610ad257610acb6201518042611841565b9350610b0a565b4284111580610aec5750610ae962278d0042611841565b84115b15610b0a576040516398e71feb60e01b815260040160405180910390fd5b60003387878787610b1c576000610b1e565b865b42610b2a600143611893565b6040516bffffffffffffffffffffffff19606098891b8116602083015296881b8716603482015260488101959095526068850193909352608884019190915260a88301524060c88201523090921b1660e882015260fc0160408051601f1981840301815291815281516020928301206000818152600290935291206008015490915015610bc957604051626995d560e31b815260040160405180910390fd5b6004546000908790600160a01b900461ffff1615610c165760045461271090610bfd90600160a01b900461ffff168a61185a565b610c079190611871565b9150610c138289611893565b90505b604051806101600160405280336001600160a01b0316815260200160006001600160a01b031681526020018a6001600160a01b0316815260200182815260200189815260200188815260200187610c6e576000610c70565b865b81526020016000815242602080830191909152600160408084018290528a15156060948501526000888152600280855290829020865181546001600160a01b03199081166001600160a01b0392831617835595880151828601805488169183169190911790559287015191810180549095169190921617909255918301516003808301919091556080840151600483015560a0840151600583015560c0840151600683015560e084015160078301805493949193909260ff1990911691908490811115610d3f57610d3f611697565b0217905550610100828101516008830155610120830151600990920180546101409094015161ffff1990941692151561ff0019169290921792151502919091179055610d966001600160a01b038a1633308b611397565b8115610db657600454610db6906001600160a01b038b8116911684611404565b604080516001600160a01b038b1681526020810183905290810189905260608101889052600090339085907fed93da789387b889dbb469e12e0518ddf6c6145468a3154ce1e479eedf2fc2d49060800160405180910390a4505060016000559695505050505050565b6000818152600260205260408120600881015415801590610e5857506000600782015460ff166003811115610e5657610e56611697565b145b80156109fb57506005015442111592915050565b610e746112b3565b610e7e600061149e565b565b610e886112b3565b6004805461ffff60a01b1916600160a01b61ffff8416908102919091179091556040519081527fc8fcf8ee1425e7e60b8af83735e1eb516d5b9ef05bfd6eece552ebaeb7c75b489060200160405180910390a150565b610ee66112b3565b6001600160a01b038116610f0d57604051635fb3e86760e11b815260040160405180910390fd5b600480546001600160a01b0319166001600160a01b0383169081179091556040517fe5693914d19c789bdee50a362998c0bc8d035a835f9871da5d51152f0582c34f90600090a250565b610f5f6112e0565b60008381526002602052604081206008810154909103610f9257604051634937821160e01b815260040160405180910390fd5b6000600782015460ff166003811115610fad57610fad611697565b14610fcb5760405163238d67bf60e21b815260040160405180910390fd5b8060050154421115610ff05760405163f765373160e01b815260040160405180910390fd5b6009810154610100900460ff161561105557600083836040516020016110179291906118a6565b604051602081830303815290604052805190602001209050816006015481146110535760405163218141ab60e21b815260040160405180910390fd5b505b60018101546001600160a01b03161580159061107e575060018101546001600160a01b03163314155b1561109c5760405163cb7824e960e01b815260040160405180910390fd5b60078101805460ff19166001179055600381015460028201546110cc916001600160a01b03909116903390611404565b336001600160a01b0316847f54e6888b93343929fb4c04c33f95a6f9df6993d77d70520adece23bf63fbd9bb836003015460405161110c91815260200190565b60405180910390a35061111f6001600055565b505050565b61112c6112e0565b6000818152600260205260408120600881015490910361115f57604051634937821160e01b815260040160405180910390fd5b6000600782015460ff16600381111561117a5761117a611697565b14611198576040516308a54a0960e01b815260040160405180910390fd5b806005015442116111bc57604051631d703d0f60e21b815260040160405180910390fd5b80546001600160a01b031633146111e657604051631cb2f8fb60e01b815260040160405180910390fd5b60078101805460ff19166002908117909155815460038301549183015461121d926001600160a01b03918216929190911690611404565b805460038201546040519081526001600160a01b039091169083907f04f52f70a574c3facc8188d13efa4536b1ab3b9571e5ed36201886191c4686ce9060200160405180910390a3506112706001600055565b50565b61127b6112b3565b6001600160a01b0381166112aa57604051631e4fbdf760e01b8152600060048201526024015b60405180910390fd5b6112708161149e565b6001546001600160a01b03163314610e7e5760405163118cdaa760e01b81523360048201526024016112a1565b60026000540361130357604051633ee5aeb560e01b815260040160405180910390fd5b6002600055565b60008686868686864261131e600143611893565b6040516bffffffffffffffffffffffff196060998a1b8116602083015297891b881660348201529590971b9095166048850152605c840192909252607c830152609c82015260bc810191909152904060dc82015260fc016040516020818303038152906040528051906020012090509695505050505050565b6040516001600160a01b0384811660248301528381166044830152606482018390526113fe9186918216906323b872dd906084015b604051602081830303815290604052915060e01b6020820180516001600160e01b0383818316178352505050506114f0565b50505050565b6040516001600160a01b0383811660248301526044820183905261111f91859182169063a9059cbb906064016113cc565b6001600160a01b0381161561149a576001600160a01b038116600081815260056020908152604080832080546001810182559084529183209091018590555184917f3da0248f11f36fd9d6e24e184864665e57903fbbb7201c3ad769e40e1b21b47191a35b5050565b600180546001600160a01b038381166001600160a01b0319831681179093556040519116919082907f8be0079c531659141344cd1fd0a4f28419497f9722a3daafe3b4186f6b6457e090600090a35050565b600080602060008451602086016000885af180611513576040513d6000823e3d81fd5b50506000513d9150811561152b578060011415611538565b6001600160a01b0384163b155b156113fe57604051635274afe760e01b81526001600160a01b03851660048201526024016112a1565b80356001600160a01b038116811461157857600080fd5b919050565b60006020828403121561158f57600080fd5b6109fb82611561565b6020808252825182820181905260009190848201906040850190845b818110156115d0578351835292840192918401916001016115b4565b50909695505050505050565b8035801515811461157857600080fd5b600080604083850312156115ff57600080fd5b61160883611561565b9150611616602084016115dc565b90509250929050565b60008060008060008060c0878903121561163857600080fd5b61164187611561565b955061164f60208801611561565b9450604087013593506060870135925061166b608088016115dc565b915060a087013590509295509295509295565b60006020828403121561169057600080fd5b5035919050565b634e487b7160e01b600052602160045260246000fd5b6001600160a01b038c811682528b811660208301528a166040820152606081018990526080810188905260a0810187905260c0810186905261016081016004861061170857634e487b7160e01b600052602160045260246000fd5b8560e08301528461010083015261172461012083018515159052565b8215156101408301529c9b505050505050505050505050565b600080600080600060a0868803121561175557600080fd5b61175e86611561565b9450602086013593506040860135925061177a606087016115dc565b949793965091946080013592915050565b60006020828403121561179d57600080fd5b813561ffff811681146109fb57600080fd5b6000806000604084860312156117c457600080fd5b83359250602084013567ffffffffffffffff808211156117e357600080fd5b818601915086601f8301126117f757600080fd5b81358181111561180657600080fd5b87602082850101111561181857600080fd5b6020830194508093505050509250925092565b634e487b7160e01b600052601160045260246000fd5b808201808211156118545761185461182b565b92915050565b80820281158282048414176118545761185461182b565b60008261188e57634e487b7160e01b600052601260045260246000fd5b500490565b818103818111156118545761185461182b565b818382376000910190815291905056fea26469706673582212202f01fedf82d87477370158430824a05c0f33dd94d71e9b882624848149ec66fe64736f6c63430008180033",
  "linkReferences": {},
  "deployedLinkReferences": {}
}